{
  "_format": "hh-sol-artifact-1",
  "contractName": "VerifierContract",
  "sourceName": "contracts/Lock.sol",
  "abi": [
    {
      "inputs": [],
      "stateMutability": "payable",
      "type": "constructor"
    },
    {
      "inputs": [],
      "name": "FileExists",
      "type": "error"
    },
    {
      "inputs": [],
      "name": "FileMissing",
      "type": "error"
    },
    {
      "inputs": [],
      "name": "NoValidPermission",
      "type": "error"
    },
    {
      "inputs": [],
      "name": "NotFileHolder",
      "type": "error"
    },
    {
      "inputs": [],
      "name": "NotOwner",
      "type": "error"
    },
    {
      "inputs": [],
      "name": "RequestNotFound",
      "type": "error"
    },
    {
      "anonymous": false,
      "inputs": [
        {
          "indexed": true,
          "internalType": "string",
          "name": "fileHash",
          "type": "string"
        },
        {
          "indexed": true,
          "internalType": "address",
          "name": "holder",
          "type": "address"
        }
      ],
      "name": "FileUploaded",
      "type": "event"
    },
    {
      "anonymous": false,
      "inputs": [
        {
          "indexed": true,
          "internalType": "string",
          "name": "fileHash",
          "type": "string"
        },
        {
          "indexed": true,
          "internalType": "address",
          "name": "requester",
          "type": "address"
        },
        {
          "indexed": false,
          "internalType": "uint256",
          "name": "expirationTime",
          "type": "uint256"
        }
      ],
      "name": "PermissionGranted",
      "type": "event"
    },
    {
      "anonymous": false,
      "inputs": [
        {
          "indexed": true,
          "internalType": "string",
          "name": "fileId",
          "type": "string"
        },
        {
          "indexed": true,
          "internalType": "address",
          "name": "holder",
          "type": "address"
        },
        {
          "indexed": true,
          "internalType": "address",
          "name": "requester",
          "type": "address"
        },
        {
          "indexed": false,
          "internalType": "bool",
          "name": "granted",
          "type": "bool"
        }
      ],
      "name": "PermissionRequestHandled",
      "type": "event"
    },
    {
      "anonymous": false,
      "inputs": [
        {
          "indexed": true,
          "internalType": "string",
          "name": "fileId",
          "type": "string"
        },
        {
          "indexed": true,
          "internalType": "address",
          "name": "holder",
          "type": "address"
        },
        {
          "indexed": true,
          "internalType": "address",
          "name": "requester",
          "type": "address"
        },
        {
          "indexed": false,
          "internalType": "uint256",
          "name": "duration",
          "type": "uint256"
        }
      ],
      "name": "PermissionRequested",
      "type": "event"
    },
    {
      "inputs": [
        {
          "internalType": "string",
          "name": "_id",
          "type": "string"
        }
      ],
      "name": "getFileInfoById",
      "outputs": [
        {
          "components": [
            {
              "internalType": "string",
              "name": "fileHash",
              "type": "string"
            },
            {
              "internalType": "string",
              "name": "fileName",
              "type": "string"
            },
            {
              "internalType": "bytes32",
              "name": "metadataHash",
              "type": "bytes32"
            },
            {
              "internalType": "address",
              "name": "holder",
              "type": "address"
            }
          ],
          "internalType": "struct VerifierContract.FileInfoView",
          "name": "info",
          "type": "tuple"
        }
      ],
      "stateMutability": "view",
      "type": "function"
    },
    {
      "inputs": [
        {
          "internalType": "address",
          "name": "_holder",
          "type": "address"
        }
      ],
      "name": "getHolderFileInfos",
      "outputs": [
        {
          "components": [
            {
              "internalType": "string",
              "name": "id",
              "type": "string"
            },
            {
              "internalType": "string",
              "name": "fileName",
              "type": "string"
            }
          ],
          "internalType": "struct VerifierContract.FileIdName[]",
          "name": "result",
          "type": "tuple[]"
        }
      ],
      "stateMutability": "view",
      "type": "function"
    },
    {
      "inputs": [
        {
          "internalType": "address",
          "name": "_holder",
          "type": "address"
        }
      ],
      "name": "getPendingRequests",
      "outputs": [
        {
          "components": [
            {
              "internalType": "string",
              "name": "fileId",
              "type": "string"
            },
            {
              "internalType": "string",
              "name": "fileName",
              "type": "string"
            },
            {
              "internalType": "address",
              "name": "requester",
              "type": "address"
            },
            {
              "internalType": "uint256",
              "name": "duration",
              "type": "uint256"
            }
          ],
          "internalType": "struct VerifierContract.PermissionRequest[]",
          "name": "pendingRequests",
          "type": "tuple[]"
        }
      ],
      "stateMutability": "view",
      "type": "function"
    },
    {
      "inputs": [
        {
          "internalType": "string",
          "name": "_fileId",
          "type": "string"
        },
        {
          "internalType": "address",
          "name": "_requester",
          "type": "address"
        },
        {
          "internalType": "bool",
          "name": "_granted",
          "type": "bool"
        }
      ],
      "name": "handlePermissionRequest",
      "outputs": [],
      "stateMutability": "nonpayable",
      "type": "function"
    },
    {
      "inputs": [],
      "name": "owner",
      "outputs": [
        {
          "internalType": "address",
          "name": "",
          "type": "address"
        }
      ],
      "stateMutability": "view",
      "type": "function"
    },
    {
      "inputs": [
        {
          "internalType": "string",
          "name": "_fileId",
          "type": "string"
        },
        {
          "internalType": "string",
          "name": "_fileName",
          "type": "string"
        },
        {
          "internalType": "address",
          "name": "_holder",
          "type": "address"
        },
        {
          "internalType": "uint256",
          "name": "_duration",
          "type": "uint256"
        }
      ],
      "name": "requestPermission",
      "outputs": [],
      "stateMutability": "nonpayable",
      "type": "function"
    },
    {
      "inputs": [
        {
          "internalType": "address",
          "name": "_from",
          "type": "address"
        },
        {
          "internalType": "address",
          "name": "_to",
          "type": "address"
        }
      ],
      "name": "transferDocuments",
      "outputs": [],
      "stateMutability": "nonpayable",
      "type": "function"
    },
    {
      "inputs": [
        {
          "components": [
            {
              "internalType": "string",
              "name": "fileHash",
              "type": "string"
            },
            {
              "internalType": "string",
              "name": "fileName",
              "type": "string"
            },
            {
              "internalType": "address",
              "name": "holder",
              "type": "address"
            },
            {
              "internalType": "string",
              "name": "id",
              "type": "string"
            },
            {
              "internalType": "bytes32",
              "name": "metadataHash",
              "type": "bytes32"
            }
          ],
          "internalType": "struct VerifierContract.FileUploadParams",
          "name": "params",
          "type": "tuple"
        }
      ],
      "name": "uploadFile",
      "outputs": [],
      "stateMutability": "nonpayable",
      "type": "function"
    },
    {
      "inputs": [
        {
          "internalType": "bytes32",
          "name": "_metadataHash",
          "type": "bytes32"
        }
      ],
      "name": "verifyFileByMetaHash",
      "outputs": [
        {
          "internalType": "bool",
          "name": "exists",
          "type": "bool"
        }
      ],
      "stateMutability": "view",
      "type": "function"
    }
  ],
  "bytecode": "0x60a06040523373ffffffffffffffffffffffffffffffffffffffff1660808173ffffffffffffffffffffffffffffffffffffffff1681525050608051612afb6100536000396000610df50152612afb6000f3fe608060405234801561001057600080fd5b50600436106100935760003560e01c80638da5cb5b116100665780638da5cb5b1461011c578063bf361f651461013a578063ccc57fed14610156578063d7b1b52d14610186578063f05bfa7b146101b657610093565b806303fe93321461009857806339814105146100c857806360745ce6146100e45780636ea2780914610100575b600080fd5b6100b260048036038101906100ad9190611a24565b6101e6565b6040516100bf9190611be7565b60405180910390f35b6100e260048036038101906100dd9190611ca6565b610468565b005b6100fe60048036038101906100f99190611d3e565b610923565b005b61011a60048036038101906101159190611d87565b610c0d565b005b610124610df3565b6040516101319190611dd6565b60405180910390f35b610154600480360381019061014f9190611e27565b610e17565b005b610170600480360381019061016b9190611f04565b6110ad565b60405161017d9190611f40565b60405180910390f35b6101a0600480360381019061019b9190611f5b565b6110d9565b6040516101ad9190612030565b60405180910390f35b6101d060048036038101906101cb9190611a24565b611387565b6040516101dd919061218d565b60405180910390f35b60606000600460008473ffffffffffffffffffffffffffffffffffffffff1673ffffffffffffffffffffffffffffffffffffffff16815260200190815260200160002090506000818054905090508067ffffffffffffffff81111561024e5761024d6121af565b5b60405190808252806020026020018201604052801561028757816020015b6102746118c6565b81526020019060019003908161026c5790505b50925060005b8181101561046057600060038483815481106102ac576102ab6121de565b5b906000526020600020016040516102c39190612310565b9081526020016040518091039020905060405180604001604052808584815481106102f1576102f06121de565b5b9060005260206000200180546103069061223c565b80601f01602080910402602001604051908101604052809291908181526020018280546103329061223c565b801561037f5780601f106103545761010080835404028352916020019161037f565b820191906000526020600020905b81548152906001019060200180831161036257829003601f168201915b5050505050815260200160018360405161039991906123bf565b908152602001604051809103902060040180546103b59061223c565b80601f01602080910402602001604051908101604052809291908181526020018280546103e19061223c565b801561042e5780601f106104035761010080835404028352916020019161042e565b820191906000526020600020905b81548152906001019060200180831161041157829003601f168201915b5050505050815250858381518110610449576104486121de565b5b60200260200101819052508160010191505061028d565b505050919050565b60006003858560405161047c92919061240a565b908152602001604051809103902080546104959061223c565b9050036104ce576040517f0a1c776400000000000000000000000000000000000000000000000000000000815260040160405180910390fd5b60006001600386866040516104e492919061240a565b90815260200160405180910390206040516104ff9190612310565b908152602001604051809103902090508060000160009054906101000a900473ffffffffffffffffffffffffffffffffffffffff1673ffffffffffffffffffffffffffffffffffffffff163373ffffffffffffffffffffffffffffffffffffffff1614610598576040517f023b4ac100000000000000000000000000000000000000000000000000000000815260040160405180910390fd5b60008060003373ffffffffffffffffffffffffffffffffffffffff1673ffffffffffffffffffffffffffffffffffffffff168152602001908152602001600020905060008180549050905060005b818110156108ea576000838281548110610603576106026121de565b5b90600052602060002090600402019050888860405160200161062692919061240a565b60405160208183030381529060405280519060200120816000016040516020016106509190612310565b604051602081830303815290604052805190602001201480156106c257508673ffffffffffffffffffffffffffffffffffffffff168160020160009054906101000a900473ffffffffffffffffffffffffffffffffffffffff1673ffffffffffffffffffffffffffffffffffffffff16145b156108de5785156106de576106dd8989898460030154611616565b5b8673ffffffffffffffffffffffffffffffffffffffff163373ffffffffffffffffffffffffffffffffffffffff168a8a60405161071c92919061240a565b60405180910390207f4f9b350eddc94747e5ad9f076982cc911e08c08115834ff8b124c7a427b73692896040516107539190611f40565b60405180910390a46001836107689190612452565b821461085b578360018461077c9190612452565b8154811061078d5761078c6121de565b5b90600052602060002090600402018483815481106107ae576107ad6121de565b5b9060005260206000209060040201600082018160000190816107d09190612633565b50600182018160010190816107e59190612633565b506002820160009054906101000a900473ffffffffffffffffffffffffffffffffffffffff168160020160006101000a81548173ffffffffffffffffffffffffffffffffffffffff021916908373ffffffffffffffffffffffffffffffffffffffff160217905550600382015481600301559050505b8380548061086c5761086b61271b565b5b60019003818190600052602060002090600402016000808201600061089191906118e0565b6001820160006108a191906118e0565b6002820160006101000a81549073ffffffffffffffffffffffffffffffffffffffff0219169055600382016000905550509055505050505061091d565b816001019150506105e6565b506040517f4b13b31e00000000000000000000000000000000000000000000000000000000815260040160405180910390fd5b50505050565b600060018280600001906109379190612759565b60405161094592919061240a565b908152602001604051809103902060030180546109619061223c565b90501461099a576040517f26a5c59b00000000000000000000000000000000000000000000000000000000815260040160405180910390fd5b600060018280600001906109ae9190612759565b6040516109bc92919061240a565b908152602001604051809103902090508180600001906109dc9190612759565b8260030191826109ed9291906127c7565b5081608001358160020181905550816040016020810190610a0e9190611a24565b8160000160006101000a81548173ffffffffffffffffffffffffffffffffffffffff021916908373ffffffffffffffffffffffffffffffffffffffff160217905550818060200190610a609190612759565b826004019182610a719291906127c7565b50818060000190610a829190612759565b60026000856080013581526020019081526020016000209182610aa69291906127c7565b50818060000190610ab79190612759565b6003848060600190610ac99190612759565b604051610ad792919061240a565b90815260200160405180910390209182610af29291906127c7565b5060046000836040016020810190610b0a9190611a24565b73ffffffffffffffffffffffffffffffffffffffff1673ffffffffffffffffffffffffffffffffffffffff168152602001908152602001600020828060600190610b549190612759565b90918060018154018082558091505060019003906000526020600020016000909192909192909192909192509182610b8d9291906127c7565b50816040016020810190610ba19190611a24565b73ffffffffffffffffffffffffffffffffffffffff16828060000190610bc79190612759565b604051610bd592919061240a565b60405180910390207f430921b453a6efbad0a7ee7b807d8698bfa8f6991266115e4a6e437b6a2960a260405160405180910390a35050565b6000600460008473ffffffffffffffffffffffffffffffffffffffff1673ffffffffffffffffffffffffffffffffffffffff168152602001908152602001600020905060008180549050905060005b81811015610dec576000838281548110610c7957610c786121de565b5b9060005260206000200190506000600382604051610c9791906123bf565b908152602001604051809103902090506000600182604051610cb991906123bf565b908152602001604051809103902090508773ffffffffffffffffffffffffffffffffffffffff168160000160009054906101000a900473ffffffffffffffffffffffffffffffffffffffff1673ffffffffffffffffffffffffffffffffffffffff1614610d2857505050610de7565b868160000160006101000a81548173ffffffffffffffffffffffffffffffffffffffff021916908373ffffffffffffffffffffffffffffffffffffffff160217905550600460008873ffffffffffffffffffffffffffffffffffffffff1673ffffffffffffffffffffffffffffffffffffffff16815260200190815260200160002083908060018154018082558091505060019003906000526020600020016000909190919091509081610ddc91906128ad565b508360010193505050505b610c5c565b5050505050565b7f000000000000000000000000000000000000000000000000000000000000000081565b600060038787604051610e2b92919061240a565b90815260200160405180910390208054610e449061223c565b905003610e7d576040517f0a1c776400000000000000000000000000000000000000000000000000000000815260040160405180910390fd5b6000604051806080016040528088888080601f016020809104026020016040519081016040528093929190818152602001838380828437600081840152601f19601f82011690508083019250505050505050815260200186868080601f016020809104026020016040519081016040528093929190818152602001838380828437600081840152601f19601f8201169050808301925050505050505081526020013373ffffffffffffffffffffffffffffffffffffffff1681526020018381525090506000808473ffffffffffffffffffffffffffffffffffffffff1673ffffffffffffffffffffffffffffffffffffffff1681526020019081526020016000208190806001815401808255809150506001900390600052602060002090600402016000909190919091506000820151816000019081610fbd9190612995565b506020820151816001019081610fd39190612995565b5060408201518160020160006101000a81548173ffffffffffffffffffffffffffffffffffffffff021916908373ffffffffffffffffffffffffffffffffffffffff1602179055506060820151816003015550503373ffffffffffffffffffffffffffffffffffffffff168373ffffffffffffffffffffffffffffffffffffffff16888860405161106592919061240a565b60405180910390207f61762d2c2666b5347b153f57530f5a90e7f1b59c6d2f75675bb20e32d1d433e18560405161109c9190612a76565b60405180910390a450505050505050565b6000806002600084815260200190815260200160002080546110ce9061223c565b905014159050919050565b6110e1611920565b6000600384846040516110f592919061240a565b9081526020016040518091039020905060008180546111139061223c565b90500361114c576040517f0a1c776400000000000000000000000000000000000000000000000000000000815260040160405180910390fd5b600060018260405161115e91906123bf565b908152602001604051809103902090508060000160009054906101000a900473ffffffffffffffffffffffffffffffffffffffff1673ffffffffffffffffffffffffffffffffffffffff163373ffffffffffffffffffffffffffffffffffffffff1614611206576111cf8133611873565b611205576040517ffcd7a1b500000000000000000000000000000000000000000000000000000000815260040160405180910390fd5b5b60405180608001604052808260030180546112209061223c565b80601f016020809104026020016040519081016040528092919081815260200182805461124c9061223c565b80156112995780601f1061126e57610100808354040283529160200191611299565b820191906000526020600020905b81548152906001019060200180831161127c57829003601f168201915b505050505081526020018260040180546112b29061223c565b80601f01602080910402602001604051908101604052809291908181526020018280546112de9061223c565b801561132b5780601f106113005761010080835404028352916020019161132b565b820191906000526020600020905b81548152906001019060200180831161130e57829003601f168201915b50505050508152602001826002015481526020018260000160009054906101000a900473ffffffffffffffffffffffffffffffffffffffff1673ffffffffffffffffffffffffffffffffffffffff168152509250505092915050565b606060008060008473ffffffffffffffffffffffffffffffffffffffff1673ffffffffffffffffffffffffffffffffffffffff16815260200190815260200160002090506000818054905090508067ffffffffffffffff8111156113ee576113ed6121af565b5b60405190808252806020026020018201604052801561142757816020015b611414611961565b81526020019060019003908161140c5790505b50925060005b8181101561160e57828181548110611448576114476121de565b5b90600052602060002090600402016040518060800160405290816000820180546114719061223c565b80601f016020809104026020016040519081016040528092919081815260200182805461149d9061223c565b80156114ea5780601f106114bf576101008083540402835291602001916114ea565b820191906000526020600020905b8154815290600101906020018083116114cd57829003601f168201915b505050505081526020016001820180546115039061223c565b80601f016020809104026020016040519081016040528092919081815260200182805461152f9061223c565b801561157c5780601f106115515761010080835404028352916020019161157c565b820191906000526020600020905b81548152906001019060200180831161155f57829003601f168201915b505050505081526020016002820160009054906101000a900473ffffffffffffffffffffffffffffffffffffffff1673ffffffffffffffffffffffffffffffffffffffff1673ffffffffffffffffffffffffffffffffffffffff1681526020016003820154815250508482815181106115f8576115f76121de565b5b602002602001018190525080600101905061142d565b505050919050565b60006003858560405161162a92919061240a565b9081526020016040518091039020905060008180546116489061223c565b905003611681576040517f0a1c776400000000000000000000000000000000000000000000000000000000815260040160405180910390fd5b600060018260405161169391906123bf565b90815260200160405180910390209050600083426116b19190612a91565b9050808260050160008773ffffffffffffffffffffffffffffffffffffffff1673ffffffffffffffffffffffffffffffffffffffff168152602001908152602001600020819055506000808360010180549050905060005b81811015611798578773ffffffffffffffffffffffffffffffffffffffff1685600101828154811061173e5761173d6121de565b5b9060005260206000200160009054906101000a900473ffffffffffffffffffffffffffffffffffffffff1673ffffffffffffffffffffffffffffffffffffffff160361178d5760019250611798565b806001019050611709565b50816118045783600101879080600181540180825580915050600190039060005260206000200160009091909190916101000a81548173ffffffffffffffffffffffffffffffffffffffff021916908373ffffffffffffffffffffffffffffffffffffffff1602179055505b8673ffffffffffffffffffffffffffffffffffffffff168560405161182991906123bf565b60405180910390207f181742b0a8610e6e999bfd31dab74217637473cf03b88c3219cb200eb81f79ce856040516118609190612a76565b60405180910390a3505050505050505050565b6000808360050160008473ffffffffffffffffffffffffffffffffffffffff1673ffffffffffffffffffffffffffffffffffffffff16815260200190815260200160002054905042811191505092915050565b604051806040016040528060608152602001606081525090565b5080546118ec9061223c565b6000825580601f106118fe575061191d565b601f01602090049060005260206000209081019061191c919061199f565b5b50565b6040518060800160405280606081526020016060815260200160008019168152602001600073ffffffffffffffffffffffffffffffffffffffff1681525090565b60405180608001604052806060815260200160608152602001600073ffffffffffffffffffffffffffffffffffffffff168152602001600081525090565b5b808211156119b85760008160009055506001016119a0565b5090565b600080fd5b600080fd5b600073ffffffffffffffffffffffffffffffffffffffff82169050919050565b60006119f1826119c6565b9050919050565b611a01816119e6565b8114611a0c57600080fd5b50565b600081359050611a1e816119f8565b92915050565b600060208284031215611a3a57611a396119bc565b5b6000611a4884828501611a0f565b91505092915050565b600081519050919050565b600082825260208201905092915050565b6000819050602082019050919050565b600081519050919050565b600082825260208201905092915050565b60005b83811015611ab7578082015181840152602081019050611a9c565b60008484015250505050565b6000601f19601f8301169050919050565b6000611adf82611a7d565b611ae98185611a88565b9350611af9818560208601611a99565b611b0281611ac3565b840191505092915050565b60006040830160008301518482036000860152611b2a8282611ad4565b91505060208301518482036020860152611b448282611ad4565b9150508091505092915050565b6000611b5d8383611b0d565b905092915050565b6000602082019050919050565b6000611b7d82611a51565b611b878185611a5c565b935083602082028501611b9985611a6d565b8060005b85811015611bd55784840389528151611bb68582611b51565b9450611bc183611b65565b925060208a01995050600181019050611b9d565b50829750879550505050505092915050565b60006020820190508181036000830152611c018184611b72565b905092915050565b600080fd5b600080fd5b600080fd5b60008083601f840112611c2e57611c2d611c09565b5b8235905067ffffffffffffffff811115611c4b57611c4a611c0e565b5b602083019150836001820283011115611c6757611c66611c13565b5b9250929050565b60008115159050919050565b611c8381611c6e565b8114611c8e57600080fd5b50565b600081359050611ca081611c7a565b92915050565b60008060008060608587031215611cc057611cbf6119bc565b5b600085013567ffffffffffffffff811115611cde57611cdd6119c1565b5b611cea87828801611c18565b94509450506020611cfd87828801611a0f565b9250506040611d0e87828801611c91565b91505092959194509250565b600080fd5b600060a08284031215611d3557611d34611d1a565b5b81905092915050565b600060208284031215611d5457611d536119bc565b5b600082013567ffffffffffffffff811115611d7257611d716119c1565b5b611d7e84828501611d1f565b91505092915050565b60008060408385031215611d9e57611d9d6119bc565b5b6000611dac85828601611a0f565b9250506020611dbd85828601611a0f565b9150509250929050565b611dd0816119e6565b82525050565b6000602082019050611deb6000830184611dc7565b92915050565b6000819050919050565b611e0481611df1565b8114611e0f57600080fd5b50565b600081359050611e2181611dfb565b92915050565b60008060008060008060808789031215611e4457611e436119bc565b5b600087013567ffffffffffffffff811115611e6257611e616119c1565b5b611e6e89828a01611c18565b9650965050602087013567ffffffffffffffff811115611e9157611e906119c1565b5b611e9d89828a01611c18565b94509450506040611eb089828a01611a0f565b9250506060611ec189828a01611e12565b9150509295509295509295565b6000819050919050565b611ee181611ece565b8114611eec57600080fd5b50565b600081359050611efe81611ed8565b92915050565b600060208284031215611f1a57611f196119bc565b5b6000611f2884828501611eef565b91505092915050565b611f3a81611c6e565b82525050565b6000602082019050611f556000830184611f31565b92915050565b60008060208385031215611f7257611f716119bc565b5b600083013567ffffffffffffffff811115611f9057611f8f6119c1565b5b611f9c85828601611c18565b92509250509250929050565b611fb181611ece565b82525050565b611fc0816119e6565b82525050565b60006080830160008301518482036000860152611fe38282611ad4565b91505060208301518482036020860152611ffd8282611ad4565b91505060408301516120126040860182611fa8565b5060608301516120256060860182611fb7565b508091505092915050565b6000602082019050818103600083015261204a8184611fc6565b905092915050565b600081519050919050565b600082825260208201905092915050565b6000819050602082019050919050565b61208781611df1565b82525050565b600060808301600083015184820360008601526120aa8282611ad4565b915050602083015184820360208601526120c48282611ad4565b91505060408301516120d96040860182611fb7565b5060608301516120ec606086018261207e565b508091505092915050565b6000612103838361208d565b905092915050565b6000602082019050919050565b600061212382612052565b61212d818561205d565b93508360208202850161213f8561206e565b8060005b8581101561217b578484038952815161215c85826120f7565b94506121678361210b565b925060208a01995050600181019050612143565b50829750879550505050505092915050565b600060208201905081810360008301526121a78184612118565b905092915050565b7f4e487b7100000000000000000000000000000000000000000000000000000000600052604160045260246000fd5b7f4e487b7100000000000000000000000000000000000000000000000000000000600052603260045260246000fd5b7f4e487b7100000000000000000000000000000000000000000000000000000000600052602260045260246000fd5b6000600282049050600182168061225457607f821691505b6020821081036122675761226661220d565b5b50919050565b600081905092915050565b60008190508160005260206000209050919050565b6000815461229a8161223c565b6122a4818661226d565b945060018216600081146122bf57600181146122d457612307565b60ff1983168652811515820286019350612307565b6122dd85612278565b60005b838110156122ff578154818901526001820191506020810190506122e0565b838801955050505b50505092915050565b600061231c828461228d565b915081905092915050565b60008190508160005260206000209050919050565b600081546123498161223c565b612353818661226d565b9450600182166000811461236e5760018114612383576123b6565b60ff19831686528115158202860193506123b6565b61238c85612327565b60005b838110156123ae5781548189015260018201915060208101905061238f565b838801955050505b50505092915050565b60006123cb828461233c565b915081905092915050565b82818337600083830152505050565b60006123f1838561226d565b93506123fe8385846123d6565b82840190509392505050565b60006124178284866123e5565b91508190509392505050565b7f4e487b7100000000000000000000000000000000000000000000000000000000600052601160045260246000fd5b600061245d82611df1565b915061246883611df1565b92508282039050818111156124805761247f612423565b5b92915050565b6000815490506124958161223c565b9050919050565b60006020601f8301049050919050565b600082821b905092915050565b6000600883026124e97fffffffffffffffffffffffffffffffffffffffffffffffffffffffffffffffff826124ac565b6124f386836124ac565b95508019841693508086168417925050509392505050565b6000819050919050565b600061253061252b61252684611df1565b61250b565b611df1565b9050919050565b6000819050919050565b61254a83612515565b61255e61255682612537565b8484546124b9565b825550505050565b600090565b612573612566565b61257e818484612541565b505050565b5b818110156125a25761259760008261256b565b600181019050612584565b5050565b601f8211156125e7576125b881612278565b6125c18461249c565b810160208510156125d0578190505b6125e46125dc8561249c565b830182612583565b50505b505050565b600082821c905092915050565b600061260a600019846008026125ec565b1980831691505092915050565b600061262383836125f9565b9150826002028217905092915050565b818103612641575050612719565b61264a82612486565b67ffffffffffffffff811115612663576126626121af565b5b61266d825461223c565b6126788282856125a6565b6000601f8311600181146126a75760008415612695578287015490505b61269f8582612617565b865550612712565b601f1984166126b587612278565b96506126c086612278565b60005b828110156126e8578489015482556001820191506001850194506020810190506126c3565b868310156127055784890154612701601f8916826125f9565b8355505b6001600288020188555050505b5050505050505b565b7f4e487b7100000000000000000000000000000000000000000000000000000000600052603160045260246000fd5b600080fd5b600080fd5b600080fd5b600080833560016020038436030381126127765761277561274a565b5b80840192508235915067ffffffffffffffff8211156127985761279761274f565b5b6020830192506001820236038313156127b4576127b3612754565b5b509250929050565b600082905092915050565b6127d183836127bc565b67ffffffffffffffff8111156127ea576127e96121af565b5b6127f4825461223c565b6127ff8282856125a6565b6000601f83116001811461282e576000841561281c578287013590505b6128268582612617565b86555061288e565b601f19841661283c86612278565b60005b828110156128645784890135825560018201915060208501945060208101905061283f565b86831015612881578489013561287d601f8916826125f9565b8355505b6001600288020188555050505b50505050505050565b6000815490506128a68161223c565b9050919050565b8181036128bb575050612993565b6128c482612897565b67ffffffffffffffff8111156128dd576128dc6121af565b5b6128e7825461223c565b6128f28282856125a6565b6000601f831160018114612921576000841561290f578287015490505b6129198582612617565b86555061298c565b601f19841661292f87612327565b965061293a86612278565b60005b828110156129625784890154825560018201915060018501945060208101905061293d565b8683101561297f578489015461297b601f8916826125f9565b8355505b6001600288020188555050505b5050505050505b565b61299e82611a7d565b67ffffffffffffffff8111156129b7576129b66121af565b5b6129c1825461223c565b6129cc8282856125a6565b600060209050601f8311600181146129ff57600084156129ed578287015190505b6129f78582612617565b865550612a5f565b601f198416612a0d86612278565b60005b82811015612a3557848901518255600182019150602085019450602081019050612a10565b86831015612a525784890151612a4e601f8916826125f9565b8355505b6001600288020188555050505b505050505050565b612a7081611df1565b82525050565b6000602082019050612a8b6000830184612a67565b92915050565b6000612a9c82611df1565b9150612aa783611df1565b9250828201905080821115612abf57612abe612423565b5b9291505056fea2646970667358221220de9d4c97fa54fd43e39f97fcd32435f9b4e3b12ce8401a4b2d64223cf4c5403f64736f6c63430008180033",
  "linkReferences": {},
  "deployedLinkReferences": {}
}